:020000040800F2
:100000001004002035010008B70900083D09000868
:10001000B5090008A1010008710A000800000000ED
:10002000000000000000000000000000DB090008E4
:10003000A301000800000000D9090008DD0900083C
:100040004F0100084F0100084F0100084F01000850
:100050004F0100084F0100084F0100084F01000840
:100060004F0100084F0100084F0100084F01000830
:100070004F0100084F0100084F0100084F01000820
:100080004F0100084F0100084F0100080000000068
:100090000000000000000000000000004F01000808
:1000A0004F0100084F0100084F0100084F010008F0
:1000B0004F0100084F0100084F0100084F010008E0
:1000C0004F0100084F0100084F0100084F010008D0
:1000D0004F0100084F0100084F0100084F010008C0
:1000E0004F0100084F0100084F0100080000000008
:1000F0000000000000000000000000000000000000
:1001000000000000000000000000000000000000EF
:1001100000000000000000004F0100084F0100082F
:10012000DFF80CD000F02AF800480047910A0008D8
:10013000100400200648804706480047FEE7FEE717
:10014000FEE7FEE7FEE7FEE7FEE7FEE7FEE7FEE787
:10015000250A000821010008D2B201E000F8012BB5
:10016000491EFBD270470022F6E710B513460A4637
:1001700004461946FFF7F0FF204610BD064C074D18
:1001800006E0E06840F0010394E807009847103467
:10019000AC42F6D3FFF7C8FFB00A0008D00A000847
:1001A000FEE770472DE9F84FDFF890A100220AF131
:1001B000040B144601274FF00F090BF1040E00BF8A
:1001C0000B6807FA04F52B40AB4274D1DFF870C11D
:1001D0004E68A6EB0C0866452BD00DDC032E34D000
:1001E00005DC36B3012E19D0022E2FD11BE0112EC3
:1001F00016D0122E2AD119E0B8F5881F19D006DCC6
:10020000B8F5803F15D0B8F5801F1FD111E0B8F5C3
:10021000001F0ED0B8F5041F18D10AE0CA6815E017
:10022000CA68121D12E0CA6808320FE0CA680C32B0
:100230000CE08A682AB1012A4FF0080203D0456118
:1002400004E0042202E0056100E00022FF2B01D857
:10025000064601E000F104064FEA840501D9A5F144
:100260002005D6F800C009FA05F82CEA080C02FAB5
:1002700005F54CEA050CC6F800C04D68ED0057D5F1
:10028000304DAE6946F00106AE61AD6924F003065B
:1002900005F0010500952C4D06EB050CDCF8085027
:1002A000A6074FEA167809FA08F6B543274EB0427A
:1002B00002D1002610E03BE0254EB04201D10126DC
:1002C0000AE0244EB04201D1022605E0224EB0429F
:1002D00001D1032600E0042606FA08F62E43CCF8E6
:1002E00008604D68DAF80060ED03554601D51E43FD
:1002F00000E09E432E604D68DBF80060AD035D4674
:1003000001D51E4300E09E432E604D68DEF800607C
:10031000ED02754601D51E4300E09E432E604D68F8
:10032000AD020E4D2E6801D51E4300E09E432E60A7
:10033000641C102CFFF444AFBDE8F88F00040140AA
:1003400000001110001002400000014000080140B0
:10035000000C014000100140001401400C04014059
:100360000AB1016170470904FBE700000148806899
:1003700070470000000000200248816802781144A4
:10038000816070470000002010B5032000F066F87F
:10039000002000F005F800F023F8002010BD000058
:1003A00070B50D4D04464FF47A712878B1FBF0F02A
:1003B0000A490968B1FBF0F000F0ACFA48B9102C1A
:1003C00007D200222146501E00F028F800206C6061
:1003D00070BD012070BD0000000000200C00002056
:1003E0000C4808B5816941F001018161816901F022
:1003F00001010091C16941F08051C161C06900F003
:10040000805000900448416821F0E06141F0806133
:10041000416008BD0010024000000140F0B40E4BE6
:100420001B680C46C3F30223C3F10705042D00D952
:100430000425191D072901D2002300E0DB1E012637
:1004400006FA05F1491E214099409E40761E16404D
:100450003143F0BC00F0B0BA0CED00E0064900F00A
:10046000070208684FF6FF03184040EA0220034ADB
:1004700010430860704700000CED00E00000FA0532
:100480002DE9F041054600683F4C810712D5400731
:1004900003D5606840F4E06060602878000703D509
:1004A000606840F4605060606068A96820F0F00007
:1004B000084360602878C00743D06868012804D0EA
:1004C0002168022804D0890703E02168890300E03D
:1004D0008901002902DB0120BDE8F081616821F07B
:1004E000030101436160FFF741FF0746686841F27D
:1004F0008836012807D0022811D01EE0FFF736FF0A
:10050000C01BB04217D86068C0F381000128F5D144
:1005100017E000BFFFF72AFFC01BB0420BD860688E
:10052000C0F381000228F5D10BE000BFFFF71EFFEA
:10053000C01BB04201D90320CEE7606810F00C0F59
:10054000F4D12878400705D56068E96820F4E060B8
:10055000084360602878000706D56068296920F4A0
:10056000605040EAC100606000F014F86168074A1A
:10057000C1F30311515CC840054908600020FFF732
:100580000FFF0020A8E70000001002409E0A0008AC
:100590000C00002013A188B00FC98DE80F0015A131
:1005A0000DF1100C0FC98CE80F00164A516816485F
:1005B00001F00C03042B10D0082B0ED1C1F38343A0
:1005C000C9031DF803000AD5D16A04AA01F00F017E
:1005D000515C0D4A5043B0FBF1F008B070470B4935
:1005E0004843FAE702030405060708090A0B0C0D45
:1005F0000E0F10100102030405060708090A0B0C70
:100600000D0E0F100010024000127A0000093D008C
:100610002DE9F84F04460078B94DC00748D0686806
:10062000C0F38100012807D06868C0F38100022868
:1006300009D16868C00306D52868800338D560688A
:1006400000286FD034E06068B0F5803F0BD010B167
:10065000B0F5A02F11D0286820F4803028602868D9
:1006600020F4802002E0286840F480302860606830
:1006700088B1FFF77BFE064609E0286840F4802039
:100680002860F0E7FFF772FE801B642875D82868A1
:100690008003F7D50CE0FFF769FE064605E000BFD2
:1006A000FFF764FE801B6428F0D828688003F7D425
:1006B0002078944E80074FF001094FF000083BD599
:1006C000686810F00C0F07D06868C0F3810002283A
:1006D00009D16868C00306D42868800714D520694A
:1006E00001281FD110E02069B0B1C6F80090FFF7D3
:1006F0003DFE074605E000BFFFF738FEC01B02289D
:10070000C4D828688007F7D52868616920F0F80008
:1007100040EAC10028600FE0C6F80080FFF726FE1F
:10072000074606E0E9E000BFFFF720FEC01B0228F5
:1007300023D828688007F7D4207800072CD5724882
:10074000A169D9B1C0F80090FFF710FE074604E098
:10075000FFF70CFEC01B02280FD8686A8007F7D588
:100760006A484FF4FA510068B0FBF1F0009000BF06
:100770000098411E0091FAD20EE080E0C0F800809F
:10078000FFF7F4FD074604E0FFF7F0FDC01B022869
:1007900075D8686A8007F7D42078400760D5E86983
:1007A0000027C00008D4E86940F08050E861E8699B
:1007B000012700F08050009055480168C90513D406
:1007C0000168834641F480710160FFF7CFFD8246E6
:1007D00006E000BFFFF7CAFDA0EB0A0064284ED870
:1007E000DBF80000C005F5D5E06801280AD008B1A3
:1007F000052813D0286A20F001002862286A20F01A
:10080000040002E0286A40F001002862E06841F23A
:10081000883B98B1FFF7AAFD82460BE0286A40F0BA
:1008200004002862EEE700BFFFF7A0FDA0EB0A017D
:1008300059455AD8286A8007F6D50CE0FFF796FD8F
:10084000824605E0FFF792FDA0EB0A0159454CD81E
:10085000286A8007F6D41FB1E86920F08050E8616B
:10086000E06988B36968C1F38101022945D0022893
:10087000C6F8608004D0FFF779FD044638E034E024
:10088000FFF774FD074604E0FFF770FDC01B022868
:100890002BD828688001F7D4206AB0F5803F05D1B5
:1008A000E86AA16820F00F000843E862D4E9080173
:1008B0000843696821F4741108436860C6F86090C1
:1008C000FFF754FD044606E015E000BFFFF74EFDBC
:1008D000001B022809D828688001F7D50BE000BF6B
:1008E000FFF744FD001B022802D90320BDE8F88F62
:1008F00028688001F4D40020F8E70120F6E7000022
:100900000010024000004242800442420C000020DD
:100910000070004010B5401EB0F1807F01D301206F
:1009200010BD4FF0E02460610F21601700F044F823
:100930000020A06107202061002010BDFEE700001C
:10094000F0B585B0002418480094019402940394F3
:10095000816941F004018161816901F00401049120
:10096000816941F0080181618069104F00F0080041
:100970004FF480460490002231463846FFF7F0FCE1
:100980000225CDE90054694609480294FFF70AFCA4
:1009900001AA0120009682E8310069463846FFF737
:1009A00001FC05B0F0BD000000100240000C014049
:1009B00000080140FEE770470907090E002806DA23
:1009C00000F00F0000F1E02080F8141D704700F1E6
:1009D000E02080F80014704770477047FFF7CCBCE8
:1009E00010B590B028216846FFF7BDFB14210AA876
:1009F000FFF7B9FB02200090012004901020002492
:100A0000059007946846FFF703FE0F20CDE90A041E
:100A10000C940D9400210AA80E94FFF731FD10B03C
:100A200010BD00000E48016841F0010101604168FD
:100A30000C4A1140416001680B4A11400160016895
:100A400021F480210160416821F4FE0141604FF4EE
:100A50001F0181600021C1620449C0030860704722
:100A6000001002400000FFF8FFFFF6FE08ED00E076
:100A7000FEE702E008C8121F08C1002AFAD1704739
:100A80007047002001E001C1121F002AFBD170470E
:100A9000FFF77AFCFFF7A4FFFFF752FFFEE7000025
:100AA000000000000000010203040607080900001E
:100AB000D00A00080000002010000000720A0008A0
:100AC000E00A00081000002000040000820A00086C
:100AD00001000000100000000000000000366E0160
:0400000508000121CD
:00000001FF
